HDR841510115DELUXE1 PETBAR  R067    TES001041124041124                                                                                                                                                                                                                                                                                                                                                                                                                                                                                                                                                                                                      
DTL000014 NFR1 I            5510101433392820   Y000431766009                AF6970  AZ001053031624143207947700001824        30.00     3.00F3                                                                                                                                                                                                                            Card not Present                                                                                                                                                                                                                                GTWYREQ_DOC001KK0749MOYVY.PDF       
TRL84151011500104112404012400000000000000000000000000000000000                                                                                                                                                                                                                                                                                                                                                                                                                                                                                                                                                                                              
